:020000040800F2
:10000000F8E20020510300085B7700080F69000840
:1000100059770008D925000861B6000800000000E3
:100020000000000000000000000000009102000835
:10003000B930000800000000ED0200085D930008E0
:100040006B0300086B0300086B0300086B030008D8
:100050006B0300086B030008BB3000086B0300084B
:100060006B030008C1300008C73000086B030008AC
:10007000492D00086B0300086B0300086B030008A0
:100080006B0300086B0300086B0300086B03000898
:10009000DD2500086B0300086B030008CD30000865
:1000A0006B0300086B0300086B0300086B03000878
:1000B0002D9400086B0300086B0300086B03000815
:1000C0006B0300086B0300086B0300086B03000858
:1000D0006B0300086B0300086B030008F19900082C
:1000E0006B0300086B0300086B0300086B03000838
:1000F0006B030008399400086B0300086B030008C9
:100100006B0300086B0300086B0300086B03000817
:100110006B0300086B0300086B0300086B03000807
:100120006B030008552D0008612D000825300008DC
:100130006B0300086B0300086B0300086B030008E7
:10014000E92500086B0300086B0300085D770008D1
:100150006B030008313000086B030008AD9A0008FB
:100160006B0300086B0300086B0300086B030008B7
:100170006B0300086B0300086B030008000000001D
:100180006B0300086B03000800F002F800F071F840
:100190000AA090E8000C82448344AAF10107DA45E2
:1001A00001D100F066F8AFF2090EBAE80F0013F0C3
:1001B000010F18BFFB1A43F001031847F4090100AF
:1001C000140A01000A444FF0000C10F8013B13F030
:1001D000070408BF10F8014B1D1108BF10F8015BA0
:1001E000641E05D010F8016B641E01F8016BF9D193
:1001F00013F0080F1EBF10F8014BAD1C0C1B09D1EA
:100200006D1E58BF01F801CBFAD505E014F8016B5B
:1002100001F8016B6D1EF9D59142D6D370470000ED
:100220000023002400250026103A28BF78C1FBD8FF
:10023000520728BF30C148BF0B60704766290FF0D6
:10024000B885002070471FB50FF0A9FD9DE8030099
:1002500000F006FB00F06AFD0400002000210FF012
:1002600031F8E06000F098FE1FBD10B500F0FDFE13
:1002700010BD00F068FF1146FFF7E5FF0CF06CFEC3
:1002800001F046F803B4FFF7F0FF03BC01F0BEF83D
:100290002C4B19680868B0E8F04F80F30988BFF369
:1002A0006F8F4FF0000080F311887047000000004E
:1002B00008480068006880F308884FF0000080F369
:1002C000148862B661B6BFF34F8FBFF36F8F00DF44
:1002D00000BF00BF08ED00E0DFF80C00016841F44A
:1002E00070010160704700BF88ED00E0EFF3098006
:1002F000BFF36F8F134B1A681EF0100F08BF20ED6D
:10030000108A20E9F04F106009B44FF0500080F3DC
:100310001188BFF34F8FBFF36F8F0EF0C7F94FF007
:10032000000080F3118809BC19680868B0E8F04F34
:100330001EF0100F08BFB0EC108A80F30988BFF3DD
:100340006F8F7047FC010020EFF3058070470000BD
:100350000948804709480047FEE7FEE7FEE7FEE759
:10036000FEE7FEE7FEE7FEE7FEE7FEE70448054995
:10037000054A064B704700001D94000889010008DB
:10038000F8A20020F8E20020F8C20020F8C2002005
:1003900070B5064600F048FA056806F10B0020F03B
:1003A0000704B4429CBF002070BD2B466A68BAB1F6
:1003B0001068A04210D304F1080188423CBF506885
:1003C000586007D35168101941601168091B01601A
:1003D00058601460101D70BD13465268002AE7D1A2
:1003E0002146284600F028FA0028DED170BD70B5FD
:1003F0000446051F00F018FA0068002C14BF44687A
:1004000070BD002C18BFAC423CBF20466468F8D3D6
:1004100001680A18AA4218BF456003D12A68054638
:100420001144016028684119A1421CBF6C6070BD75
:100430006168696021680844286070BD53EA020C55
:1004400000F069802DE9F04B4FF00006002B1FBF34
:10045000B3FA83F503FA05F424FA05F65E4012BFF9
:100460001643B2FA82F502FA05F4C5F120051EBF63
:1004700022FA05FC44EA0C04203556EA044C4FEA03
:10048000144418BF641C4FF000084FF0000990425C
:1004900071EB030C39D3002919BFB1FA81F701FAC6
:1004A00007F6B0FA80F700FA07F6C7F120071EBF7B
:1004B00020FA07FC46EA0C062037B6FBF4FCA7EB53
:1004C0000507103F07F01F0BCBF120060CFA0BFBC2
:1004D0002CFA06F644BFB3460026202FA4BF5E4682
:1004E0004FF0000B5BEA060C08BF4FF0010B19EB55
:1004F0000B09ABFB027C48EB0608C01B06FB02CCD9
:100500000BFB03CC71EB0C01C1E70B4602464146E5
:100510004846BDE8F08B13B54FF000004FF00001E6
:10052000AFF30080BDE81C40704700000FB40449E1
:1005300010B503AA029800F0E3FB10BC5DF814FBB1
:10054000F0A100202DE9F0474FF0000A894604464B
:10055000C0F820A02046E1688847002876D02528EA
:1005600006D0D4E901219047206A401C2062F1E7BF
:10057000E168204600258847C4F81CA006460027ED
:10058000C4F818A02A2E09D030460BF053FB38B31C
:1005900004EB8708303EC8F8186019E059F8041BCE
:1005A000204604EB87029161E1688847012F0646E7
:1005B00018D1E069002820DA25F020051DE0D8F8E0
:1005C000180000EB800006EB40003038C8F8180037
:1005D0002046E168884706460BF02CFB0028EED148
:1005E000012F0AD02E2E08D12046E16888477F1CB3
:1005F0000646022F45F02005C4DBA069002803DA77
:10060000404245F00105A061E80701D025F0100542
:10061000B6B1A6F14100192802D8203645F400658C
:100620004A463146204625604D46FFF707FE58B141
:10063000012806D0ED1D25F0070000F1080989E723
:1006400004E005F1040985E730468AE7206ABDE841
:10065000F08710B5431C02E010F8011B71B181074F
:10066000FAD14FF0013202C88C1A8C4314EAC2113D
:10067000F9D0C01A0A0603D0C01E10BDC01A10BDA2
:100680000A0401D0801E10BD0902FCD0401E10BD1E
:10069000032A40F2308010F0030C00F0158011F8AE
:1006A000013BBCF1020F624498BF11F801CB00F886
:1006B000013B38BF11F8013BA2F1040298BF00F8DA
:1006C00001CB38BF00F8013B11F0030300F0258097
:1006D000083AC0F0088051F8043B083A51F804CBBE
:1006E000A0E80810F5E7121D5CBF51F8043B40F884
:1006F000043BAFF30080D20724BF11F8013B11F88F
:1007000001CB48BF11F8012B24BF00F8013B00F8D2
:1007100001CB48BF00F8012B704710B5203AC0F05C
:100720000B80B1E81850203AA0E81850B1E81850F2
:10073000A0E81850BFF4F5AF5FEA027C24BFB1E82F
:100740001850A0E8185044BF18C918C0BDE81040A0
:100750005FEA827C24BF51F8043B40F8043B08BFA9
:100760007047D20728BF31F8023B48BF11F8012B70
:1007700028BF20F8023B48BF00F8012B704702F069
:10078000FF0343EA032242EA024200F002B84FF0BC
:1007900000020429C0F0128010F0030C00F01B804E
:1007A000CCF1040CBCF1020F18BF00F8012BA8BF5C
:1007B00020F8022BA1EB0C0100F00DB85FEAC17C20
:1007C00024BF00F8012B00F8012B48BF00F8012BD3
:1007D00070474FF0000200B5134694469646203904
:1007E00022BFA0E80C50A0E80C50B1F12001BFF4EA
:1007F000F7AF090728BFA0E80C5048BF0CC05DF850
:1008000004EB890028BF40F8042B08BF704748BF9D
:1008100020F8022B11F0804F18BF00F8012B704711
:10082000704770477047000000487047A0A2002042
:10083000704770477047704738B504460A46002035
:100840006946AFF30080002808BF38BD0246009912
:10085000204600F073FA012038BD012000F038BCBA
:10086000F8B5AFF30080054600200C46102000BF0D
:100870000646A819A0420DD9324669460020AFF3BA
:100880000080070008BF00F023FC0098A04218BFBA
:100890000546C419FFF7C8FF05600746F01D20F0A4
:1008A00007004619284600F00AF8B44208BFF8BD10
:1008B000A21B31463868BDE8F84000F03FBA00217D
:1008C0000160C0E9011070471020704710B500F0BA
:1008D00031FA006810BD10B5044600F02BFA046030
:1008E00010BD70472DE9FF4F0C461E464FF0FF37F5
:1008F0008BB0D2E90001DDF860800A908A46C1F32E
:100900000A5505B93D46002108464FF00000BAF1EE
:10091000000F00F4400005DA00EB80004FF44001C6
:1009200001EA50004FEA9059B9F1010F00DDB946D4
:100930000A9850EA4A000ED044F61050A5F2FF354E
:1009400045432F14B8F1000F1ED07542291E1EDD3D
:10095000C9F100021CE0B8F1010F4FF0000001D016
:10096000302103E0F24305E02154401CB042FBDBA0
:1009700030460022002121540B99C1F80880C1E9BA
:1009800000200FB0BDE8F08FBD1B6D1CDEE74A46AE
:1009900000DA694206A800F089FA06AB93E807007E
:1009A00003AB83E8070050460A9900F085FE8DE806
:1009B0000700A0F500501F3800900398002D0ADDB5
:1009C00042F21F014A460844002303A903906846E7
:1009D00001F0EEF809E0A0F500504A461F38002368
:1009E00003A90390684601F0F8F88DE807000004B9
:1009F000000C03D04FF0FF30410800E01046B8F182
:100A0000000F03D00022009215461EE0751E05D48B
:100A100000F0AEF9303262556D1EF9D5B3460122B1
:100A2000084302D000227F1C04E02078302801D146
:100A300000227F1E002A099784D01DE0112D07DABD
:100A400000F096F9303262556D1C50EA0102F5D182
:100A5000084302D00098C8B10EE00021681E05E0EE
:100A6000235C625C63542254401E491C8142F7DBC4
:100A7000AB46A81B401E0990002004F80B000B9801
:100A8000099AC0F80880C0E9002B7AE711264FF0D8
:100A9000000857E72DE9F04F88460446D21D22F0A2
:100AA000070191B0D1E90001CDE90A010AF058FE31
:100AB00002460B98C00F01D02D2007E02068810767
:100AC00001D52B2002E0202101EAC000032A099071
:100AD00001D0072A05DB03464146204600F0A6F96F
:100AE0000BE12078800601D5E06900E00620B8F12E
:100AF000650F814606D0B8F1660F18D0B8F1670FC0
:100B000070D131E00020B9F1110F009001DB112309
:100B100001E009F101030AAA01A90CA8FFF7E2FE0E
:100B2000DDE90C70002609F10105834647E001204C
:100B30004B4600904FF000470AAA01A90CA8FFF706
:100B4000D1FEDDE90DB00C995D46002610B909F122
:100B500001000D18B9EB050003D4C0F1FF3609F10F
:100B60000105A5EB09002BE0B9F1010F01DA4FF007
:100B700001090020B9F1110F0090484601DD112351
:100B800000E003460AAA01A90CA8FFF7ABFEDDE9C5
:100B90000C704D4600268346207800070AD4AB45EA
:100BA00000DA5D4601A8012D04DD411911F8011C90
:100BB000302907D04F4502DA17F1040F04DA01207B
:100BC00082460FE06D1EEEE7002F02DCED1B3E4477
:100BD00003E0781CA84200DD7D1CB81B00F1010A6F
:100BE0004FF000472078000703D4AA4501DB4FF0FF
:100BF000FF3A0021B7F1004F0DF143088DF8431083
:100C000024D002202B23002F01DA7F422D230A213A
:100C1000021EA0F1010000DC5FB197FBF1FC97FB25
:100C2000F1F201FB1C7C17460CF1300C08F801CDE9
:100C3000EEE7A8F1010003702188090501D54521DF
:100C400000E06521A0F1010800F8011C09980FA936
:100C5000A1EB0807FF1D00B10120411901EBEA706B
:100C6000A1693844081A401EA0612078C00602D449
:100C70002046AFF30080099828B1D4E901219047BC
:100C8000206A401C20622078C00622D52046AFF39F
:100C900000801EE0002E04DBB34502DD01A8805D6C
:100CA00000E03020D4E901219047206A401C2062F6
:100CB000761CAAF101005FEA000A0AD100F036F8BA
:100CC000C0680168405CD4E901219047206A401C5B
:100CD0002062281EA5F10105DCDC07E0D4E9012132
:100CE00018F8010B9047206A401C2062381EA7F1BB
:100CF0000107F3DC2046AFF30080032011B041E68A
:100D0000074B70B50D467B4400F07DF8044628463D
:100D100000F03EF910B14FF0FF3070BD204670BDBD
:100D2000FBBC00000048704798A2002000487047B4
:100D3000B8A200200048704798A2002003464068EF
:100D40008C46002818BF88423CBF03464068F8D351
:100D500018681844884207D00CF1030020F00700FF
:100D6000001D411A521A0146081D0A60FFF73FBBD9
:100D700030B5B0F10A024FEA900E71F100034EEA6D
:100D8000817EB0EB0E0061EB91014FEA101E4EEA3E
:100D9000017E10EB0E0041EB11114FEA102E4EEACE
:100DA000016E10EB0E0041EB11214FEA104E4EEA9E
:100DB000014E10EB0E0041EB1141401841F10001D2
:100DC0004FEAD00040EA41704FEAD10110EB8005B4
:100DD0004FEA810444EA907444EB01046D1944EB3A
:100DE0000404521BA3414FF0000348BF0A3200D550
:100DF00030BD401C41F1000130BD000001694A1CBA
:100E000002610878704700B58FB0CDE9013100214B
:100E1000059105497944CDE9031011466846FFF76D
:100E200091FB0FB000BD0000E5FFFFFF2DE9F04191
:100E30001F46044603260168072A01F4006004DB0C
:100E400008B116A505E016A503E008B115A500E058
:100E500015A521F010002060A069C01EA0610FB18F
:100E6000401EA0612046AFF300804FB1D4E90121BC
:100E700038469047206A401C2062C01C206206E071
:100E8000206AFAE7D4E9012115F8010B9047761E94
:100E9000F8D22046AFF30080BDE8F0814E414E000D
:100EA0006E616E00494E4600696E66002DE9F0479E
:100EB000814616468AB0354878440DC88DE80D0045
:100EC00032487844801C03AC0DC884E80D0041F61C
:100ED0009B300844372190FBF1F290FBF1F5A5F12E
:100EE000800501FB12041B3C02D56442012000E096
:100EF0000020DFF898A080460027FA44AAF1BE0A35
:100F00000EE0E0070AD03246684607EB47010123AE
:100F10000AEB810100F061FE8DE8070064107F1C80
:100F2000002CEED1194F7F44AE3F19E0E80715D0F1
:100F300007EB04100DF1180A90E80E008AE80E0085
:100F4000C068F04201D1981908903246012306A9E1
:100F500003A800F042FE03AB83E807006D10641C99
:100F6000002DE3D14FF0010332466946B8F1000F7E
:100F700003A802D000F01CFE01E000F02EFEC9E93B
:100F80000001C9F808200AB0BDE8F08768FC00003D
:100F9000007B00F08000704710B542485421FFF7F5
:100FA00018FC41485421FFF714FC40485421FFF736
:100FB00010FC3F493B483C4A3F4B08603D490A60B2
:100FC0003A491960531C0365481C106501200865E7
:100FD0003B48344A39A1784400F0FEF820B938483B
:100FE00078440A3800F0A2F937482F4A35A17844EE
:100FF00000F0F2F820B9344878440A3800F096F945
:1010000032482A4A2FA1784400F0E6F820B92F4848
:1010100078440A3800F08AF940232248DC00002195
:10102000224600F0B5F820B125487844543800F045
:101030007DF91D4822464023002100F0A9F820B187
:1010400021487844543800F071F91848224610239A
:10105000002100F09DF8002806D01C487844BDE827
:101060001040563800F062B910BD104870B5006DE0
:1010700020F001040B4800F025F90B4800F022F99C
:101080000A4800F01FF909E0206D20F00105204614
:1010900000F018F92046FFF7AAF92C46002CF3D1EE
:1010A00070BD00009CA10020F0A1002044A20020FF
:1010B0009C030020A0030020A40300207200000075
:1010C00062FB0000770000004EFB00003AFB0000CE
:1010D00010B500F033F9BDE8104000F022B90EB5AC
:1010E000CDE90001FFF7B5FA029069460120ABBED9
:1010F0000EBD08B5694600900220ABBE08BD1FB505
:101100008DE8070069460520ABBE04B010BD1FB5D1
:101110008DE80F0069460620ABBEF6E708B56946C4
:1011200000900920ABBE08BD1CB5CDE900016946A1
:101130000A20ABBE1CBD704708B5694600900C2064
:10114000ABBE08BD70477546FFF7ECFDAE46050027
:101150006946534620F00700854618B020B5FFF7D2
:1011600005F9BDE820404FF000064FF000074FF0B2
:1011700000084FF0000B21F00701AC46ACE8C009B5
:10118000ACE8C009ACE8C009ACE8C0098D467047BE
:1011900070B5C468A50713D0650211D4B2F5807F7D
:1011A00009D0B2F5007F06D0B2F5806F08D10123D7
:1011B00000F1240106E05D1E6FF07F46B54201D3C9
:1011C000012070BD0161C361416024F4706111436D
:1011D000C160002070BD00002DE9F0410C460746BB
:1011E0001646104600F06EF82078611C61280AD07F
:1011F000722802D077283CD102E00125002405E0C6
:101200000225042402E0082448F2020511F8010B2B
:101210002B2806D0622809D011F8010C74280AD0B6
:101220000BE045F0030544F00204EFE745F0040548
:1012300044F00104EAE744F0100438462146FFF781
:101240004EFF411C15D00021316171604FF40071D7
:10125000F560F1617061200704D53046022200215B
:1012600000F0DAF8306D40F0010030653046BDE83E
:10127000F0810020FBE72DE9F0410D460646104CB9
:10128000206DC10704D0410804D020F00104F7E725
:1012900022460EE05420FFF77BF807000ED0206DA9
:1012A00047F001010843542120653846FFF791FAC1
:1012B0003A4629463046BDE8F0418DE70020D6E7A2
:1012C0009CA100202DE9F04704464FF000094FF0A3
:1012D000FF37C568D4E90486A80707D0204600F088
:1012E0004BF93046FFF705FF002802DA3846BDE823
:1012F000F087280502D54046FFF779F84C212046B3
:10130000FFF767FA206D20F0010020654846EEE700
:1013100010B50446AFF300802046BDE81040FEF74C
:10132000B1BF002801D000F071B8704710B500F0CF
:1013300081F9BDE81040FFF7F4BF000010B50128A7
:1013400005D0002103A000F05BF9012010BD09A128
:10135000F8E7000053494752544D454D3A204F7528
:1013600074206F662068656170206D656D6F72799D
:10137000000000003A2048656170206D656D6F7255
:101380007920636F72727570746564004FF0013C70
:1013900050F8042B51F8043B9A4221D1A2EB0C03E4
:1013A000934313EACC1317D150F8042B51F8043BA4
:1013B0009A4215D1A2EB0C03934313EACC130BD141
:1013C00050F8042B51F8043B9A4209D1A2EB0C03CC
:1013D000934313EACC13DBD04FF00000704700BFFB
:1013E000D01A01BAB1FA81F101F0180122FA01F024
:1013F000CB40C1F12001DBB2C0B2C01A2CFA01F31C
:10140000D11A914311EAC311E6D17047014918205E
:10141000ABBEFEE7260002002DE9F0410446164669
:101420000D464769007B80072ED03846FFF776FED1
:1014300050BB3EB3012E02D0022E25D104E020463F
:1014400000F019F905441DE03846FFF775FEE16824
:10145000002841F01001E16005DA204600F058F85C
:101460000120BDE8F081C9030BD56268E16A9142B1
:1014700000D81146A26911442269891A814200DD0F
:1014800008460544002D01DA0220EAE7E16A6068B7
:10149000E268814206D29103E06203D522F4003172
:1014A00041F01002A6690027AE4213DCE16A8142D6
:1014B00001D90B4600E0034603EB060C2369ACEBB5
:1014C000030CAC4506DD814201D98C4600E0844620
:1014D0009C4505D1A760276042F02000A5620DE081
:1014E000AD1BE669AE1B8142A66000D90846C01A52
:1014F000281A20605819606022F020000349084033
:10150000E060002084F84870ABE70000BFCFD7FF51
:10151000C16821F4001141F08001C16000218160A7
:10152000016070472DE9F047814614460E464FF0A2
:10153000FF383248D5685769054209D03846A16955
:10154000FFF7F2FD002811DB2C48C0430540E560A1
:101550002B46324649463846FFF7D1FDA16920F0B7
:101560000042B21A11440028A16103D02046FFF7BF
:10157000CFFF4046BDE8F08770B504460569C06AF4
:101580006168884200D80846E16821F42011E160D2
:10159000C90312D5A84208D02246411B2846FFF7AE
:1015A000C1FF10B14FF0FF3070BD0020E562C4E90B
:1015B0000150E06820F48030E060002070BD10B57C
:1015C0000446C06820F02000E060A16AA06988425B
:1015D0000DD02046FFF7D0FFE06820F4405040F0E7
:1015E0001000E060A06AA0612069E062606044F2DF
:1015F0004001E0688843E06010BD00001000020078
:1016000070B505460C460A2000E06D1C00F02CF871
:1016100035B128780028F8D102E0641C00F024F8E5
:1016200014B120780028F8D1BDE870400A2000F0FD
:101630001BB8000010B5014602A0FFF7E1FF012032
:1016400010BD000053494752545245443A20526558
:101650006469726563743A2063616E2774206F70E9
:10166000656E3A200000000008B569468DF800005C
:101670000320ABBE08BD10B50146C268900703D079
:10168000900607D5886A0AE0FFF754FB0121016044
:10169000881E10BD8B69486818440B69C01A91F800
:1016A00048301BB191F84910401A10BD1103FCD508
:1016B0000028FADD401E10BD5FEA400C08BF91F023
:1016C000000F4FEA8C234FEAC12243EA51514FEAFF
:1016D0001C5018BF00F5F0404FEA300018BF41F031
:1016E00000415FEA6C5C00F02980BCF1FF3F08BF5D
:1016F00040F080407047130C06BF12044FF0100CEE
:101700004FF0000C130E04BF12020CF1080C130F63
:1017100004BF12010CF1040C930F04BF92000CF1F2
:10172000020CD30F04BF52000CF1010C11464FF014
:101730000002A0F11F00A0EB0C00704711F0004F59
:1017400008BF704731F000413FF4D5AF0B0C06BF26
:1017500009044FF0100C4FF0000C0B0E04BF0902EF
:101760000CF1080C0B0F04BF09010CF1040C8B0FDA
:1017700004BF89000CF1020CCB0F04BF49000CF12F
:10178000010CCCF12003A0EB0C0022FA03F302FAC7
:101790000CF241EA030100F10100704720F07F4C98
:1017A00080EA030023F07F47ACEB070303F57C538B
:1017B00000F0004003F1FF032DE980494FEA154B8B
:1017C00009B44FEA144325EA0B4E24EA03480FF20A
:1017D000042606EB132749083E785FEA320203FB32
:1017E0000667C7F5000707FB06F64FEA54374FEACE
:1017F000D64606F1020607FB066CCCF1005C4FEA08
:101800001C472CEA074C07FB06F40CFB06F504EB1F
:1018100015464FEA961634BF00204FF000404FEABD
:10182000D13706FB07FC4FEA1C4C0CFB0BF7D21B15
:1018300003FB0CF761EB07010CFB0EF7B0EB074065
:1018400072EB17420CFB08F734BFA2EB0742B2EB76
:10185000074261EB17414FEA0C444FEA910706FB40
:1018600007FC4FEA1C4C0CFB0BF7B0EBC74072EBCC
:10187000573203FB0CF734BFA2EBC742B2EBC742AF
:1018800061EB57310CFB0EF7B0EBC70072EB5772F0
:101890000CFB08F734BFA2EBC702B2EBC70261EB47
:1018A0005771039F4FEA816141EA921104EBCC0426
:1018B0004FEAD1374FEA826206FB07FC42EA9012F8
:1018C0004FEA80604FEA1C4C0CFB0BF7D21B03FB6A
:1018D0000CF761EB07010CFB0EF7B0EB074072EB66
:1018E00017420CFB08F734BFA2EB0742B2EB0742EA
:1018F00061EB17414FEA8C554FEA910704EB9C24AA
:1019000006FB07FC4FEA1C4C0CFB0BF7B0EBC74087
:1019100072EB573203FB0CF734BFA2EBC742B2EBBA
:10192000C74261EB57310CFB0EF7B0EBC70072EB0F
:1019300057720CFB08F734BFA2EBC702B2EBC70229
:1019400061EB577115EB4C254FEA816141EA921129
:101950004FEA82624FEAD13742EA901206FB07FC57
:1019600044F100044FEA80604FEA1C4C0CFB0BF77B
:10197000D21B03FB0CF761EB07010CFB0EF7B0EB7E
:10198000074072EB17420CFB08F734BFA2EB07428B
:10199000B2EB074261EB174115EB1C154FEA8131A1
:1019A00041EA92414FEA823242EA90424FEA803065
:1019B0004FEA0C7644F1000448EA03434EEA0B4830
:1019C0004FF0000EB2EB080C71EB030724BF624628
:1019D00039464EEB0E0E4FF0000B001852414941B4
:1019E0004BEB0B0BB2EB080C71EB03077BF1000B1D
:1019F00024BF624639464EEB0E0E4FF0000B001826
:101A0000524149414BEB0B0BB2EB080C71EB030756
:101A10007BF1000B24BF624639464EEB0E0E51EAB5
:101A2000020718BF46F0010616EB0E7655F10002CC
:101A300054F1000103D5BDE88901BDE80088BDE887
:101A40008901BDE80048B619524141EB0101A3F1FB
:101A50000103704780807F7E7D7C7B7A7978777602
:101A600076757473727171706F6E6E6D6C6C6B6A7B
:101A70006A69686867666665646463636261616019
:101A8000605F5F5E5E5D5D5C5C5B5B5A5A59595896
:101A90005857575656555555545453535252525100
:101AA000515050504F4F4F4E4E4D4D4D4C4C4C4B56
:101AB0004B4B4A4A4A49494948484847474747469D
:101AC00046464545454444444443434343424242D9
:101AD00042414141002B9C4630D477002BD01CB5AD
:101AE0004FEA370703B44FF010004FF01001BAF17E
:101AF000000F06D0BCF1000FDCBF40F0080040F042
:101B000008014FF000000FBCBDE810400BF1010BC5
:101B1000BBF1010F08BF5FEA170722BF12F10102F4
:101B200011F101014FF0004143F1000300F00040CA
:101B300043EA00007047F9D35708D0E746EA064663
:101B400013F1400F4FEA16461FDD13F1200FDFBFE0
:101B500016430A46002120335B42BED0C3F1200762
:101B600046EA064602FA07F74FEA164646EA07062D
:101B7000C3F1200722FA03F201FA07F721FA03F171
:101B80004FF0000342EA0702A7E746EA020646EAE8
:101B900006464FEA164646EA0106BCBF46EA064636
:101BA000360C4FF000034FF000024FF0000194E7B5
:101BB0002DE9804C9A46934670B491E8380007C8E6
:101BC00031EA400C48BF34EA430C03D5FFF7E6FD89
:101BD000FFF780FFF0BCBDE8008C2DE9804C9A46F1
:101BE000934670B491E8380007C810F0804F08BFE2
:101BF00013F0804F03D100F005F8FFF76BFFF0BC46
:101C0000BDE8008C20F07F4780EA030023F07F4C82
:101C100007EB0C03A3F57C5300F00040A3F1FE0397
:101C200092F0000F00F0B38095F0000F00F0778085
:101C30002DE901494FEA11404FEA144621EA0048D4
:101C400000FB06FC24EA064708FB06F607FB08F83B
:101C500000FB07F718EB06484CEB164C4FEA124B0B
:101C600018EB07484FEA15464CEB174022EA0B4E9B
:101C70000BFB06FC25EA06470EFB06F607FB0EFEED
:101C80000BFB07F71EEB064E4CEB164C4FF0000615
:101C90001EEB074E4CEB174B18EB0B0840F1000006
:101CA00018EB0E0B58EB000840F100008F1A4FF0B4
:101CB00000013CBFC943661B14BFB5EB040C0021F7
:101CC0003CBFC943F61B4FEA17444EEA8E0E27EA83
:101CD00004454FEA1C4704FB07622CEA074C05FB4E
:101CE00007F70CFB05F604FB0CFC16EB074642EB72
:101CF000174216EB0C4642EB1C421BEB060658EB58
:101D00000202414146EA9E0601D5BDE80189B619A5
:101D1000524141EB0101A3F10103BDE801894FEA02
:101D200014454FEA114724EA054621EA074C05FB12
:101D300007F406FB07F70CFB06F105FB0CFC11EBA7
:101D4000074144EB17444FEA124711EB0C4144EBB7
:101D50001C4422EA074C05FB07F206FB07F70CFBC5
:101D600006F605FB0CFC16EB074642EB174216EB9A
:101D70000C4642EB1C456A1854F1000148BF7047FD
:101D8000B619524141EB0101A3F10103704795F0EF
:101D9000000F37D04FEA11424FEA144721EA0246BA
:101DA00024EA074C02FB07F106FB07F70CFB06F4DD
:101DB00002FB0CFC14EB074441EB17414FEA1547BB
:101DC00014EB0C4441EB1C4125EA074C02FB07F5E0
:101DD00006FB07F70CFB06F602FB0CFC16EB0746AE
:101DE00045EB174516EB0C4645EB1C42121951F119
:101DF000000148BF7047B619524141EB0101A3F100
:101E0000010370474FEA14454FEA114724EA05469B
:101E100021EA074C05FB07F106FB07F70CFB06F26E
:101E20004FF0000605FB0CFC12EB074241EB17419B
:101E300012EB0C4251EB1C4148BF7047921841EB2A
:101E40000101A3F10103704709F0C6BC09F05ABDB6
:101E50000AF05CB9F0EE400AF5EEC00AF1EE10FAB5
:101E600002DDB0EE600A7047B1EE600AFBE70000E9
:101E7000002803D09FED020A80ED000A70470000A1
:101E800000000000002803D0B3EE060A80ED000A2F
:101E90007047000070B52DED0C8B84B006460C46E3
:101EA00015469FED990AF0EE408A9FED970AB0EE35
:101EB000409A9FED950AF0EE40BA9FED930AF0EE3E
:101EC000409A9FED910AB0EE40AA0EB104B11DB93F
:101ED00004B0BDEC0C8B70BD8C48FFF7C9FF8C487B
:101EE000FFF7D0FF8A48D0ED000A9FED8A1A60EE16
:101EF000810AB0EE600A00F025F9F0EE408A28EE83
:101F0000A80AF0EE408A8248D0ED000AB0EE001A2E
:101F100060EE810A9FED7F1A60EE810AB0EE600AE2
:101F200000F010F9B0EE409A29EE090AB0EE409A9E
:101F3000DFED790AB7EE000A00EEA80ADFED770AB6
:101F400000EEC90ADFED760A20EE200A754880ED22
:101F5000000A6E4890ED000ADFED730A80EE201A49
:101F6000B7EE000A31EE000A20EE000A6D48D0ED0F
:101F7000000A80EE801A6D4880ED001A94ED000A88
:101F8000B5EEC00AF1EE10FA0DD194ED010AB5EEEE
:101F9000C00AF1EE10FA06D194ED020AB5EEC00ABD
:101FA000F1EE10FA46D09FED580AB0EE408A0020BC
:101FB000019002900390D4ED000A60EEA00A94ED27
:101FC000011AD4ED011A41EE210A94ED021AD4ED62
:101FD000021A41EE210AB0EE600A00F0A9F8B0EE54
:101FE000408A94ED000A20EE080A8DED010A94ED76
:101FF000010A20EE080A8DED020A94ED020A20EE95
:10200000080A8DED030ADDED010AF1EE600AB0EE7B
:10201000600AFFF719FFF0EE409A9DED031AF0EE0B
:10202000410A9DED021AB0EE410AFFF70FFFB0EE34
:1020300040AA07E09FED340AF0EE409A9FED320A85
:10204000B0EE40AA95ED000AB5EEC00AF1EE10FA26
:102050000DD195ED010AB5EEC00AF1EE10FA06D1E8
:1020600095ED020AB5EEC00AF1EE10FA3CD0B0EEE2
:10207000690A00F067F8B0EE408AB0EE690AFFF72F
:10208000E7FEB0EE40DAB0EE4A0A00F05BF8F0EEA0
:1020900040AAB0EE4A0AFFF7DBFEB0EE40BA28EEE7
:1020A0002A0AD5ED010A20EE200AD5ED000A0DEE30
:1020B000200A68EE0B0A95ED021A00EE810AB0EED6
:1020C00040CA95ED010A20EE0B0AD5ED020A0AEE90
:1020D000E00AF0EE40CAF0EE6C0AB0EE4C0AFFF7F0
:1020E000B5FEF0EE40BA03E09FED070AF0EE40BA0D
:1020F000B0EE4A1AF0EE690AB0EE6B0A304609F00B
:102100004FFF00BFE4E60000000000008C03002049
:102110009003002035FA8E3CC1BFAD3B9DF8C5361B
:102120002F7C1C4194030020506CC24A980300206D
:1021300010B509F04CFDB7EE001AC1EE000AB0EE82
:10214000600A10BD0AF024B82DE9F0412DED028B94
:102150009AB00546B0EE408A0E46174698460020D3
:102160001790189019901490159016904DB146B193
:102170003FB1B8F1000F04D0B5EEC08AF1EE10FA0D
:1021800005D100201AB0BDEC028BBDE8F08196EDC0
:10219000000A8DED170A96ED010A8DED180A96EDED
:1021A000020A8DED190A97ED000A8DED140A97EDDC
:1021B000010A8DED150A97ED020A8DED160A17AA90
:1021C00014A9284609F03EFD402104A8FEF701FBB2
:1021D00000200090019002900390002417A904A809
:1021E0000BF070FF00BF30E004A800EB041090ED8E
:1021F000000AD5ED000A20EE200A04A800EB041026
:10220000D0ED010A95ED011A00EE810A04A800EB59
:102210000410D0ED020A95ED021A00EE810A04A81E
:1022200000EB0410D0ED030A95ED031A00EE810ACD
:1022300020EE080AF0EE000A80EE201A684600EB55
:10224000840080ED001A601CC4B2042CCCDB002496
:1022500010E005EB840090ED000A684600EB840076
:10226000D0ED000A30EE200A05EB840080ED000A74
:10227000601CC4B2042CECDB28460BF009FD0120E5
:1022800080E7000001221021014802F0FDB80000A3
:102290000000024000221021014802F0F5B80000C1
:1022A000000002407047000001221146014802F080
:1022B000EBB800000004024000220121014802F0B6
:1022C000E3B800000004024030B5437804781B02F4
:1022D0001BB2234300EE103A194CB8EEC00AD4EDFD
:1022E000000A20EE200A81ED000AC37885781B02DF
:1022F0001BB22B4300EE103AD4ED000AB8EEC00A30
:1023000020EE200A81ED010A437904791B021BB2F9
:10231000234300EE103AB8EEC00A20EE200ADFEDAB
:10232000090A81ED020AD0F8060020F07F4000EE95
:10233000100AB8EE400A20EE200A82ED000A30BDF5
:102340003801002000401C4270470AF09BBE0AF092
:1023500067BA000010B542780378120212B21A432D
:1023600000EE102A124BB8EEC00AD3ED010A20EE9F
:10237000200A81ED000AC2788478120212B2224348
:1023800000EE102AD3ED010AB8EEC00A20EE200AB2
:1023900081ED010A42790079120212B2024300EE85
:1023A000102AB8EEC00A20EE200A81ED020A10BD04
:1023B0003801002010B5FFF775FFFFF7C5FF09F0E2
:1023C000BBFF08B1802402E009F022FF04460AF0B6
:1023D00081F910B144F0400010BD0AF00DF920431E
:1023E00010BD00002DE9FC410746002016460D46B1
:1023F00000900190FFF74EFF922000F0BDF80622FA
:102400006946122000F09AF8FFF73CFF9DF80100A2
:102410009DF80010000200B2084300EE100A464C7E
:10242000B8EEC00AD4ED000A20EE200A85ED000ABD
:102430009DF803009DF80210000200B2084300EE70
:10244000100AD4ED000AB8EEC00A20EE200A85ED8D
:10245000010A9DF805009DF80410000200B208432F
:1024600000EE100AB8EEC00A20EE200A85ED020A3E
:10247000FFF722FF08226946002000F05FF8FFF70F
:1024800013FF9DF800000F2830D19DF803009DF840
:102490000210000200B2084300EE100AD4ED010A57
:1024A000B8EEC00A20EE200A87ED000A9DF805006C
:1024B0009DF80410000200B2084300EE100AD4EDAB
:1024C000010AB8EEC00A20EE200A87ED010A9DF845
:1024D00007009DF80610000200B2084300EE100A43
:1024E000B8EEC00A20EE200A87ED020AFFF7D2FEFE
:1024F000A22000F041F802226946222000F01EF8D6
:10250000FFF7C0FE9DF800009DF80110C00040EAF2
:102510005110B0F5806F01DBA0F5006000EE100AED
:10252000B4EE001AF8EEC00AB3EE070A00EE810A14
:1025300086ED000ABDE8FC813801002070B5144624
:102540000D4640F0800000F017F806E0552000F03E
:1025500013F8641E05F8010BE4B2002CF6D170BD2F
:1025600010B50C4640F0800000F006F8552000F051
:1025700003F8207010BD000001B582B04FF47A70EE
:102580000090012301AA02A9024803F017FB9DF85D
:1025900004000EBD681F002002784078D20042EA95
:1025A0005010B0F5806F01DBA0F5006000EE100A5E
:1025B000B4EE001AF8EEC00AB3EE070A00EE810A84
:1025C00081ED000A704710B50C46FFF7D5FF204695
:1025D000BDE81040FFF7D0BFFEE70000014801F062
:1025E000DEB90000C41E0020014801F0D8B9000087
:1025F000EC1E002010B58AB04FF400740294002441
:102600000494059408240694040A8DF800408DF87B
:102610000100080A8DF80200100A8DF804008DF8F8
:102620000520180A8DF806008DF803108DF8073084
:1026300008AB6A4602A9024801F052F80AB010BD80
:10264000EC1E002000B589B040F2FF100090002081
:102650000290039008200490080A8DF81A008DF863
:102660001B1008AB06AA6946024801F039F809B008
:1026700000BD0000C41E002000B589B04FF40073F7
:10268000009300230293039308230493030A8DF815
:1026900018308DF81900080A8DF81A00100A8DF804
:1026A0001C008DF81B108DF81D2008AB06AA69468A
:1026B000024801F015F809B000BD0000C41E00205A
:1026C00000B589B040F2FF10009000200290039006
:1026D00008200490080A8DF818008DF8191008AB2E
:1026E00006AA6946024800F0FBFF09B000BD0000E1
:1026F000EC1E0020002070470020704710B500221B
:102700000449054807F04BFB0449034807F03DFB2B
:10271000002010BD143700201C240020142F00209E
:1027200010B504460146094807F02FFB2078A3287E
:1027300006D10748216801606168416021890181F3
:10274000024807F001FB002010BD00001C240020FF
:10275000AE0E002000207047094A10B5D2F8BC2206
:10276000D2F814220AB1012010BD0A4601460448DD
:1027700007F015FBBDE81040014807F099BB0000C9
:102780001C24002030B52DED068B85B09FED698AA5
:10279000694C6A48227B9FED6A0ADFED6A8A9FEDE9
:1027A0006A9A6A4DB0F90210B0F90000D5ED030A3B
:1027B000012A06D0032A3DD0022A6AD0002A7DD001
:1027C0009AE0D5F84C23002A62D101EE101AB8EE37
:1027D000C11A81EE00AA01EE100AB8EEC11AC1EECC
:1027E000009A80EEA80A20EE090A09F0D1FCF0EE6A
:1027F000400A95ED030AF0EE60AAC0EE280A20EE2A
:10280000890A09F083FC60EE0A0A4B4814304AEE4C
:10281000A90AC4ED000A6AEE8A0A40EE690AC4ED0C
:10282000010A95ED030AF0EE480A05F055F8B1EEFD
:10283000400A2BE001EE101AB8EEC11A81EE008AB0
:1028400001EE100AB8EEC11AC1EE009A80EEA80A95
:1028500020EE090A09F09CFCB0EE40AA95ED030AAF
:10286000C0EE280A20EE890A09F050FCF0EE400A7A
:1028700020EE880A0AEE290A84ED000A2AEE080AE8
:1028800000EEE90A84ED010AB0EE000A84ED020AC6
:1028900032E001EE101AB8EEC11A81EE00AA01EE84
:1028A000100AB8EEC11AC1EE009A80EEA80A20EE16
:1028B000090A09F06DFCF0EE40AA00E016E095ED83
:1028C000030AC0EE280A20EE890A09F01FFCF0EE88
:1028D000400A20EE8A0A0AEEA90A84ED000A2AEECE
:1028E0008A0A00EEE90A84ED010A03E084ED008A19
:1028F00084ED018A84ED028A684694EC030A00F0B4
:1029000005F9134900206A4602EB800393ED000AA3
:10291000C0EBC00303EB430301EB8303401CC0B2D5
:1029200083ED010A0428EFD300F078F805B0BDEC80
:10293000068B30BD00000000BC08002059170020A5
:102940000000FA4300003443D00F4940180900202A
:102950006C0700200F499FED100A104A002000BFAD
:1029600000EB800301EB4303B3F9023000EE903A31
:10297000C0EBC00303EB4303F8EEE00A02EB830372
:10298000401CC0B260EE800A0428C3ED000AE7D301
:1029900070470000A803002094C9D33A6C070020B8
:1029A00070B500242DED048B26469FED168A164D3A
:1029B000DFED168A9FED169AC4EBC40000EB4000D1
:1029C00005EB8000F0EE680A80ED008A80ED018A58
:1029D0000681B0EE490A0F4A00210C3005F010F8CC
:1029E000641CE4B2042CE7D3BDEC048BF0EE000AC7
:1029F000B1EE040A074ABDE870400C3200210648D7
:102A000004F0FEBF000000006C0700200000FA4444
:102A100000007A46C4FD0008D008002070B51548B3
:102A2000154E007BC0B10025C5EBC50000EB400092
:102A300006EB800404F10C0094EC020A04F04CFF55
:102A400094ED0B0A6D1CEDB2BDEEC00A042D10EE24
:102A5000100A2081E8D370BD00200146C0EBC002FF
:102A600002EB420206EB8202401CC0B21181042834
:102A7000F4D370BDBC0800206C0700200F48002272
:102A8000017B41730E498B7A022B03D0012B03D0BB
:102A9000032B03D002737047022107E00123037365
:102AA000B1F9081011F5A57F02DA0321017370470F
:102AB0000449D1F84C130029ECD17047BC08002020
:102AC0005917002018090020FFF76AFFC8200BF0F3
:102AD000D1FC0C4CFFF73EFFFFF7D0FFFFF752FE93
:102AE00009480AF01DFBB4F90431B4F9B020B4F977
:102AF0005C10B4F90800FFF77DFD02200BF0BAFC72
:102B0000E8E700006C070020BC08002010B5044670
:102B10002DED108BB0EE418AF0EE608AB0EE409A57
:102B200018EE100A0DF0CAF89FED81AB53EC1A2B8A
:102B30000CF010FE41EC1D0B9FED7FFBB0EE4F0A39
:102B4000F0EE6F0A09F006F8B0EE40BAF0EE60BAA7
:102B500018EE900A0DF0B2F853EC1B2B0CF0FAFDB6
:102B600041EC1C0BB0EE4F0AF0EE6F0A08F0F2FFDA
:102B7000F1EE499AB0EE40BAF0EE60BA19EE900A62
:102B80000DF09CF853EC1B2B0CF0E4FD53EC1C2BCC
:102B90000CF0AAFF53EC1D2B0CF0DCFB9FED68BB87
:102BA00053EC1B2B0CF07EFC0CF0A2FB206018EE0B
:102BB000100A0DF083F853EC1A2B0CF0CBFD41EC0E
:102BC0001E0BB0EE4F0AF0EE6F0A08F0C3FFB0EE36
:102BD00040CAF0EE60CA18EE900A0DF06FF853ECA0
:102BE0001C2B0CF0B7FD41EC1D0BB0EE4F0AF0EEC4
:102BF0006F0A08F0AFFFB0EE40CAF0EE60CA19EEFF
:102C0000100A0DF05BF853EC1C2B0CF0A3FD53ECF9
:102C10001D2B0CF069FF53EC1E2B0CF09BFB53ECAF
:102C20001B2B0CF03FFC0CF063FB606018EE100AED
:102C30000DF044F853EC1A2B0CF08CFD41EC1E0BFC
:102C4000B0EE4F0AF0EE6F0A08F084FFB0EE40CA13
:102C5000F0EE60CA18EE900A0DF030F853EC1C2B21
:102C60000CF078FD41EC1D0BB0EE4F0AF0EE6F0A50
:102C700008F070FFB0EE40CAF0EE60CA19EE100A1C
:102C80000DF01CF853EC1C2B0CF064FD53EC1D2BC9
:102C90000CF060FB53EC1E2B0CF05CFB53EC1B2B7D
:102CA0000CF000FC0CF024FBA06018EE100A0DF0F4
:102CB00005F853EC1A2B0CF04DFD41EC1A0BB0EE5D
:102CC0004F0AF0EE6F0A08F045FFB0EE40CAF0EE92
:102CD00060CA18EE900A0CF0F1FF53EC1C2B0CF0BC
:102CE00039FD41EC180BB0EE4F0AF0EE6F0A08F018
:102CF00031FFB0EE40CAF0EE60CA19EE900A0CF057
:102D0000DDFF53EC1C2B0CF025FD53EC182B0CF0C5
:102D100021FB53EC1A2B0CF01DFB53EC1B2B0CF07E
:102D2000C1FB0CF0E5FAE060BDEC108B10BD0000BB
:102D30009A9999999999D93F0000000000000040A4
:102D40000E4FAF946588B3BF014801F0FFB8000093
:102D5000FC220020014801F0F9B800005C230020AB
:102D60002DE9F05FA748A84BA84CC06CA64DA74E14
:102D7000A54F0068A449DFF89492DFF88CA2DFF831
:102D80008CB2DFF884E2A14A483B6034183518362B
:102D9000303F09F178090AF1300A4FF4006C0BF169
:102DA000300BAEF1180E884223D99749543926E0EA
:102DB000A84233D14FF020080AE0504535D1E04613
:102DC00006E000BF4FF4001802E000BF4FF00068BB
:102DD00011EA080F7CD08C49884253D9904205D023
:102DE000984203D0A04201D0A8422FD14FF0200C2E
:102DF00045E08649A831884203D983495839096892
:102E000005E08249483188428149F8D949689042B1
:102E1000D0D09842CED0A042CCD0C9E7B042CED0DC
:102E2000B842CCD04845CAD0C7E75845CAD070454B
:102E3000C8D0DFF8D88108F190084045C2D0DFF84B
:102E4000C88108F148084045C0D1BBE7B04216D060
:102E5000B84214D0484512D0504510D0584509D03A
:102E6000704507D069499031884203D0664948319E
:102E7000884202D14FF4001C01E04FF0006C624820
:102E80004C382AE06149A831884229D9904205D0BE
:102E9000984203D0A04201D0A84202D14FF0200CAA
:102EA00019E0B04217D0B84215D0484513D050456C
:102EB00011D0584509D0704507D054499031884207
:102EC00003D051494831884203D14FF4001C02E03D
:102ED00095E04FF0006C4C485038C0F800C052E00C
:102EE0004A494831884227D9904205D0984203D0B8
:102EF000A04201D0A84202D14FF0200C18E0B0420D
:102F000016D0B84214D0484512D0504510D058457C
:102F100009D0704507D03D499031884203D03A49E5
:102F20004831884202D14FF4001C01E04FF0006CA0
:102F30003748C0F80CC026E0904205D0984203D034
:102F4000A04201D0A84202D14FF0200C18E0B042BC
:102F500016D0B84214D0484512D0504510D058452C
:102F600009D0704507D029499031884203D02649BD
:102F70004831884202D14FF4001C01E04FF0006C50
:102F80002348C0F808C0234C207880070CD520784F
:102F900020F002002070207840F004002070012210
:102FA00011461D4801F070FA60781C4D80070CD561
:102FB000607820F002006070607840F0040060707B
:102FC00001221021284601F05FFAA07880070CD575
:102FD000A07820F00200A070A07840F00400A0705B
:102FE00001221021284601F04FFA09F03FFE207817
:102FF000400704D50A48016841F001010160BDE8BD
:10300000F09F0000681F00205864024010600240DA
:103010000060024024000020000402400000024042
:10302000103C0140014800F091BF0000202000202A
:10303000014800F08BBF0000BC230020016818236A
:10304000CAB2103AB2FBF3F2054B6FF30901032A3F
:103050009B5CC36500D9091D816508467047000067
:103060007802010810B5014600208B698A6A4FF08A
:10307000C07453B1B3F5005F15D072B1012A0CD002
:10308000022A0AD0032A09D104E01AB1012A06D083
:10309000022A03D1C96AC90100D5012010BDC96A3D
:1030A000A142FAD010BD002AF7D0012AF2D0022A9C
:1030B000F3D0032AF3D010BD7047012001F0D8B837
:1030C000082001F0D5B8102001F0D2B8202001F07E
:1030D000CFB872B6FEE7000070B51F481F4C90F8DD
:1030E000C820E06922B142F22831012A06D009E065
:1030F000401FE06107D50020E06104E0401DE06171
:10310000884200DDE161144DD4ED070ACC3505F1AC
:10311000200095ED000AF8EEE00A04F0DDFB95EDE5
:10312000100ABDEEC00A10EE100AA882E06995ED03
:103130002C0A404200EE900A05F1D000F8EEE00AB9
:1031400004F0CAFB95ED3C0ABDEEC00A10EE100A71
:10315000A5F8C40070BD0000680C0020D400002059
:1031600010B50F4C204694F8491390F848030029F5
:1031700014D1012812D1C4F84C0300F0D9F9012070
:103180000BF078F908489FED070A416881ED040AC1
:10319000006880ED040A0020C4F84C0310BD000054
:1031A0001809002000000000CC0000202DE9F041AB
:1031B0006C4C6D4B2DED048B206890ED000A80ED7A
:1031C000010A598900EE101AB8EE400A80ED000A93
:1031D0009FED661A60EE010A9FED650A60EE801AA7
:1031E000C0ED021ADFED630AC0ED0C0A71EEE00AD1
:1031F000C0ED030AB3F90C1000EE901AB8EEE02A05
:10320000DFED5D1A5D4DC2EE210A60EE800AC0ED71
:10321000090AD5ED050A9FED5A8A60EE880ADFEDAE
:10322000598A594A80EEA82A80ED052AD2ED020A71
:10323000C0ED070A6068016841601E8800EE906A70
:10324000534EF8EE600AC0ED000AB3F9023002EE08
:10325000103A4E4BB8EEC22A9942C2EE212A62EED3
:10326000801AC0ED091AF7EE001A09DA10EE907A0A
:10327000B74205DD90ED0B2A32EE612A80ED0B2A74
:10328000B14209DD10EE901A994205DA90ED0B2A51
:1032900072EE211AC0ED0B1A60EE810AD0ED0B1A06
:1032A0003D4B20EE801ADFED3B0A01EE801A41EE25
:1032B000800A80ED021AC0ED0C0A71EE600A10EE71
:1032C000901AC0ED030A994203D970EE800AC0ED4E
:1032D000030A10EE901A314EB14203DD70EEC00ABF
:1032E000C0ED030AD2ED000A90ED081A70EEC10A93
:1032F00010EE901AC0ED070AB14203DD70EEC00A6D
:10330000C0ED070A10EE901A994203D930EE800AF8
:1033100080ED070A206890ED030A60EE280A80EE2F
:10332000880A08F0F3FED5ED070A206820EE209AFF
:1033300090ED030A60EE280A80EE880A08F028FF64
:10334000D5ED050A606800EE609ADFED150A89EE9A
:10335000200A20EE080A80ED050ABDEC048BBDE8CA
:10336000F0810000CC000020D003002000000039D4
:103370000000B443007C3043000070428004002011
:1033800000003443D00F4940680400200000C842C8
:1033900000D8FC4580875943000034C30000344303
:1033A000560E494070B501202DED048B09F0DCFB71
:1033B0004F4C2060002009F0D7FB00210D469FED07
:1033C0004D8A4D4BC4F80400C1EB0112C2EBC2029E
:1033D00003EB8202491C82ED058A82ED068A82EDAA
:1033E000078A82ED048A82ED028AA2F8A05183F84E
:1033F0004853C9B283F849530229E5D3F0EE480A8D
:10340000B0EE480A3D4A0021383004F0F9FA3B4A50
:103410006068F0EE480A9FED3A0A0C320021C8308D
:1034200004F0EEFA9FED379ADFED378A334A606891
:10343000F0EE490AB0EE680A18320021803004F03C
:10344000DFFAF0EE480A9FED318A2C4A6068B0EE50
:10345000480A2432002100F5887004F0D1FA274A86
:103460006068F0EE480AB0EE080A3032002100F53C
:10347000AC7004F0C5FA214A2068F0EE490AB0EEBB
:10348000680A3C320021383004F0BAFA1B4A20683E
:10349000F7EE000AB0EE480A48320021C83004F0C6
:1034A000AFFA164A2068F0EE490AB0EE680A5432C4
:1034B0000021803004F0A4FA104A2068F7EE000AD8
:1034C000B0EE480A6032002100F5887004F098FAE6
:1034D0002068F0EE480ABDEC048BB0EE080A00F557
:1034E000AC70064ABDE870406C32002104F088BA26
:1034F000CC0000200000000018090020DCFD0008BE
:1035000000008C4200401C460060EA460000C842B1
:103510000649486810F8342F4270096811F8342FB2
:103520004A70022202700A7070470000CC0000202E
:1035300010B5404C01202DED028BB0EE008A616881
:10354000DFED3D8A81F83400216881F8340023E002
:10355000FFF72CFE6068F0EE680A90ED030AC830B1
:1035600004F0BAF96068D0ED3A0AC0ED060A90EDB1
:10357000050A803004F0B0F9606890ED280ABDEECD
:10358000C00A10EE101A09B2A0F8A0110120FFF72E
:1035900097F801200AF06EFF606890ED030A09F0C9
:1035A000C7F9B4EEC80AF1EE10FAD1DC234890ED69
:1035B000000A606880ED080A24E000BFFFF7F6FD0E
:1035C0002068F0EE680A90ED030AC83004F084F930
:1035D0002068D0ED3A0AC0ED060A90ED050A803069
:1035E00004F07AF9206890ED280ABDEEC00A10EECA
:1035F000101A09B2A0F8A0110220FFF723F8012049
:103600000AF038FF206890ED030A09F091F9B4EE52
:10361000C80AF1EE10FAD1DC606890F8351080F835
:103620003410206890F8351080F83410BDEC028B0F
:1036300010BD0000CC000020000000006804002045
:103640000A4890F8481380F849130949897A0129F2
:1036500009D0022905D0032902D1012180F848139D
:1036600070470021FAE70221F8E70000180900205E
:1036700059170020FFF796FEC8200AF0FBFE0E4CFB
:10368000FFF794FDFFF7DCFFFFF742FFFFF768FD50
:1036900007F0ECFF04F0E2F96068B0F9A011012036
:1036A000FFF70EF82068B0F9A0110220FEF7CAFF5C
:1036B00001200AF0DFFEE3E7CC00002090F8202094
:1036C000012A07D0022A05D0416A41F480214162D3
:1036D00001207047006842690A4342610020704738
:1036E000F0B590F820500468A468012D05D0022D93
:1036F00003D0416A41F4802153E014F0406F01D1BE
:10370000E5004BD5C4F30164022C03D9416A41F4AE
:10371000000146E00125A5401D608D684FF4C0738F
:103720009DB1CE6835434E6845EAC605066803EB91
:103730000417F5514FF4C275076805EB04150E69BF
:103740007E51097D012905D009E00E88CD6845EA42
:103750004655EBE701684E5946F480764E51117993
:10376000D2F805504FF4C67641EA0525016806EB0C
:1037700004168D511178D2F801204FF4C47541EA36
:103780000221026805EB04155151006803EB041196
:10379000425842F0010242500020F0BD416A41F41B
:1037A000001141620120F0BD10B590F82020012ADF
:1037B00007D0022A05D0416A41F4802141620120EC
:1037C00010BD3B48D0F8002242F00102C0F80022B0
:1037D000D0F8002222F47C52C0F80022D0F8002257
:1037E0004B6A42EA0322C0F800220A7D02F01F035E
:1037F00001229A40D0F81C329343C0F81C32CB69A6
:10380000B3B9D0F80C329343C0F80C328C894B68B2
:1038100064F31F434C6900EBC404C4F840320C89C4
:103820000B6864F31F434C6900EBC404C4F84432D2
:10383000CB69012B16D1D0F80C321343C0F80C32EF
:103840000C884B6864F31F434C6900EBC404C4F854
:1038500040320C89CB6864F31F434C6900EBC4040D
:10386000C4F844328B69002BD0F804320ED01343D5
:10387000C0F804320B69002BD0F8143208D013437F
:10388000C0F81432096A012904D008E09343EFE735
:103890009343F5E7D0F81C121143C0F81C12D0F87E
:1038A000001221F00101C0F80012002010BD00003C
:1038B00000640040704730B590F82040012C05D0DE
:1038C000022C03D0416A41F480215DE004680029A4
:1038D00055D02469A40754D04FF4D874056804EB7C
:1038E00001142D5915F00405956005682D594ED029
:1038F000ED08556005682C5904F00204D4604FF4BB
:10390000DA74056804EB01142D5905F00F051561F3
:1039100005682D59C5F30725956105682C59240CB8
:1039200054614FF4DC72046802EB0112A4581C705D
:103930000468A458240A5C700468A458240C9C7081
:103940000468A258120EDA704FF4DE72046802EBBB
:103950000112A4581C710468A458240A5C710468FC
:10396000A458240C9C710468A258120EDA710068E5
:1039700081B1016941F020010161002030BDE4689E
:10398000A8E7416A41F400114162012030BD6D0D8C
:103990001560AFE7C16841F02001C160EDE72DE996
:1039A000F05F0546006800244669D0F804908768F7
:1039B000D0F80CB0D0F810A0D0F81880F10748D09B
:1039C000F90714D001218160B80703D5284600F01B
:1039D000B6FA0CE0780702D54FF4006407E0380728
:1039E00002D54FF4805402E0284600F0A7FAF8050B
:1039F00016D529684FF480708860B80503D528462D
:103A000000F09FFA0CE0780502D544F4005407E07A
:103A1000380502D544F4804402E0284600F090FACC
:103A2000F80316D529684FF480308860B80303D5B1
:103A3000284600F088FA0CE0780302D544F40044EC
:103A400007E0380302D544F4803402E0284600F051
:103A500079FA300707D55FEACB6004D529681020D2
:103A600044F40074C86070074FF0080707D55FEA98
:103A70000B7004D52868C760284600F099F9B00794
:103A800006D52868C068800702D0284600F092F961
:103A9000700607D55FEACA6004D52968102044F48F
:103AA00080640861B00607D55FEA0A7004D528680B
:103AB0000761284600F012FAF00606D5286800696A
:103AC000800702D0284600F00AFAB00308D55FEA62
:103AD000C96005D5296810204860284600F000FA22
:103AE000F00307D55FEA097004D5286847602846C7
:103AF00000F02AFA300446D55FEA497040D5F00557
:103B000004D55FEAC87001D044F00104B00504D5C3
:103B10005FEA887001D544F00204700504D55FEABD
:103B2000487001D544F00404300529D518F0700F11
:103B300026D008F07000402815D006DC102809D0E7
:103B400020280AD0302816D10AE050280ED060284C
:103B500011D10EE044F008040DE044F010040AE036
:103B600044F0200407E044F0400404E044F0800402
:103B700001E044F480742868816921F0700181615A
:103B8000296804204860002C05D0686A20436862D8
:103B90002846FFF78FFEBDE8F09F70B5040003D004
:103BA00094F8200010B104E0012070BD204600F020
:103BB00081F82068016841F00101016000F06AFCB1
:103BC0000546052604E000F065FC401B0A2811D8D4
:103BD00020684068C007F6D02068016821F0020123
:103BE000016000F057FC05460BE000F053FC401B61
:103BF0000A2806D9606A40F40030606284F82060C8
:103C0000D2E7206840688007EFD4207E0128206832
:103C100001683DD021F080010160607E01282068AC
:103C2000016838D021F040010160A07E01282068A1
:103C3000016833D021F020010160E07E0128206876
:103C400001682ED041F010010160207F012820681A
:103C5000016829D021F008010160607F01282068F7
:103C6000016824D021F004010160D4E90201084375
:103C7000D4E90412114308436168491E08432168CE
:103C8000C86100206062012084F82000002070BD1F
:103C900041F08001C0E741F04001C5E741F020015B
:103CA000CAE721F01001CFE741F00801D4E741F065
:103CB0000401D9E7F0B587B0044614216846FCF743
:103CC00088FD364B3648DFF8D0E01968D4F800C0DC
:103CD000334A03250226092710300024491CF445E5
:103CE00022D11960012907D1016841F000710160FA
:103CF000006800F000700590106840F00800106047
:103D00001068CDE9005600F00800CDE9047069465E
:103D10002448CDE9024500F0B7FA0022052114201D
:103D200000F0E0FE142032E0DFF87CE0F44530D112
:103D3000D0F800C04CF0806CC0F800C0D0F800C0D3
:103D400001290CF0806CCDF814C0196007D101680E
:103D500041F000710160006800F00070059010688B
:103D600040F002001060106802AB00F00200059005
:103D70006020CDE9000683E8B00069460B4800F0FA
:103D800083FA00220521402000F0ACFE402000F024
:103D90009BFE07B0F0BD00000064004084010020DD
:103DA00030380240000C024000680040000402402D
:103DB0007047000030B587B00446444B6A46002186
:103DC000FFF779FD414942488B1E424A844247D160
:103DD000009C02F11400A4F50074013C14D0012CE5
:103DE00012D0022C2AD0052C38D150895082088854
:103DF00040BA5081488840BA9081888840BAD081C2
:103E000088791074062027E0009A521ED2B21A70E8
:103E100002EB820400EB440330F814501D810D883E
:103E20000C326DBA20F81450488840BA58808888FF
:103E300040BA988088799871D0B20DE0828A8283E6
:103E40000A8852BA82824A8852BAC2828A8852BA90
:103E5000028389798176072008F0FCFC07B030BD29
:103E60001D488442FAD10098A0F201200528F5D21D
:103E7000DFE800F012121212030010881081088887
:103E800040BA1080488840BA5080888840BA9080F4
:103E9000887990710520DFE7C0B258700D4B00EBB8
:103EA0008004283B03EB440233F8145015810D883D
:103EB000401C6DBA23F814504B88C0B25BBA5380D3
:103EC0008B885BBA938089799171C5E70A000020DD
:103ED000C41E0020D0030020EC1E00207047704755
:103EE0007047000070B5044690F82000012804D007
:103EF000606A40F40020606218E0022084F820002C
:103F00002068016821F00101016000F0C3FA054654
:103F10000EE000BF00F0BEFA401B0A2808D9606A14
:103F200040F400306062052084F82000012070BD5C
:103F300020684068C007EDD1606270BD704770476F
:103F40007047704770477047704700002DE9F8438D
:103F500004464FF00009CDF8009063484FF4165125
:103F6000A56D0068B0FBF1F72E6894F85C1008208E
:103F700000FA01F131420FD021680A6852070BD5CF
:103F80000A6822F004020A6094F85C108840A86075
:103F9000606D40F00100606594F85C104FF001081E
:103FA00008FA01F0304208D021684969090604D5B1
:103FB000A860606D40F00200606594F85C10042019
:103FC0008840304208D021680968890704D5A86074
:103FD000606D40F00400606594F85C10102088402B
:103FE000304218D021680968090714D5A8602068F4
:103FF0000168490304D50068000308D5A16C07E0F7
:104000000168C90503D4016821F008010160216C31
:1040100009B12046884794F85C102020884030423F
:1040200031D021680968C9062DD5A86094F83500FB
:1040300005282068016806D0490347D500680003B9
:104040001DD4616C1CE021F01601016020684169FB
:1040500021F080014161206C08B9A06C20B120687A
:10406000016821F00801016094F85C103F2088404D
:10407000A86084F8358084F83490216D1FE0E16BEE
:1040800009B120468847606D00282BD0606DC007BD
:1040900014D0052084F835002068016821F0010162
:1040A00001600098401C0090B84203D82068006866
:1040B000C007F6D184F8358084F83490E16C00298B
:1040C00010D001B02046BDE8F04308470168C9059B
:1040D000D5D4016821F01001016084F8358084F89E
:1040E0003490CCE7BDE8F883F80100202DE9F041D9
:1040F000044600F0CFF906465CB1022084F8350092
:10410000002584F834502068016821F00101016025
:104110000DE00120BDE8F08100F0BCF9801B05280E
:1041200005D920206065032084F83500F2E7206877
:104130000068C007F0D12268116820480140D4E926
:1041400001031843D4E90336334318436369184322
:10415000A3691843E3691843236A18430843616A53
:10416000042903D1D4E90B131943084310602068D4
:104170004069666A20F0070130460E430127042893
:104180000CD1A06A0643E06A40B12046FEF76AFF00
:1041900020B14020606584F83570BAE72068466138
:1041A0002046FEF74BFF94F85C203F219140816050
:1041B000656584F835700020ACE700003F8010F0A2
:1041C00070B5044600F066F90546601C02D004484C
:1041D0000078044400F05EF9401BA042FAD370BDA1
:1041E000EC01002010B5204C10281BD0202825D031
:1041F000082831D0012814D160710AF087FE012807
:104200000FD004F1100160690AF06AF920690028F2
:1042100007D016494FF080500860BFF34F8FBFF3AF
:104220006F8F10BD092008F015FB607840F0010089
:104230006070A07840F00100A07006E0082008F04F
:1042400009FB207840F00100207020790028E8D098
:10425000BDE8104008F00ABD0A2008F0FBFAE0783B
:1042600040F00100E07010BD2400002004ED00E0EB
:10427000044910B50A68024202D00860FFF7B2FF95
:1042800010BD0000143C01402DE9F84FDFF8BCA13F
:10429000002201250AF1040B03264FF00F090BF150
:1042A000040E00BF0B6805FA02F42340A34270D14C
:1042B0000F7907F00307012F01D0022F16D187686D
:1042C0004FEA420806FA08FC27EA0C07D1F80CC0AE
:1042D0000CFA08FC4CEA070CC0F808C04768A74372
:1042E0000C79C4F3001494403C4344600C79E443DB
:1042F000A4070AD0C4684FEA420C06FA0CF7BC4384
:104300008F6807FA0CF72743C7600C7904F00304A1
:10431000022C12D1D40800EB840CDCF820405707A3
:10432000FF0E09FA07F824EA0804D1F8108008FA09
:1043300007F848EA0408CCF8208004684FEA420CE9
:1043400006FA0CF7BC430F7907F0030707FA0CF7DE
:10435000274307604C6814F4403F70D03C4C2768FA
:1043600047F480472760246822F0030704F4804460
:104370000094384C07EB040CDCF8084897074FEA28
:10438000177809FA08F7BC43334FB84202D1002727
:1043900024E054E0314FB84201D101271EE0304FF4
:1043A000B84201D1022719E02E4FB84201D10327AC
:1043B00014E02D4FB84201D104270FE02B4FB84233
:1043C00001D105270AE02A4FB84201D1062705E0AE
:1043D000284FB84201D1072700E0082707FA08F75D
:1043E0002743CCF80878DAF800405746D1F804C0E3
:1043F0009C435FEACC3C00D51C433C60DBF80040AA
:104400005F46D1F804C09C435FEA8C3C00D51C4356
:104410003C60DEF800407746D1F804C09C435FEA78
:10442000CC2C00D51C433C60084F0C373C68D1F8BD
:1044300004C09C435FEA8C2C00D51C433C60521C9A
:10444000102AFFF42FAFBDE8F88F0000003C0140B8
:1044500044380240003001400000024000040240A5
:1044600000080240000C024000100240001402400C
:1044700000180240001C0240426921EA02030A407F
:1044800043EA0241816170470AB1816170470904C2
:10449000FBE700000148806870470000EC01002045
:1044A00070B5040025D094F83D00002520B984F8AB
:1044B0003C50204600F04CFA242084F83D0020684F
:1044C000016821F0010101602068016841F40041A8
:1044D00001602068016821F40041016001F08AF860
:1044E0004D4A6168914201D84C4900E04C498842EC
:1044F00001D2012070BD4B492368B0FBF1F15E6829
:1045000026F03F060E435E606368934206D94FF47F
:10451000967359434FF47A73B1FBF3F12368491C46
:104520001E6A26F03F06314319626168914210D835
:104530004900401EB0FBF1F2521CC2F30B02042AE8
:1045400001D2042022E0B0FBF1F0401CC0F30B00CC
:104550001CE0A268F2B301EBC10303EB0116431E9A
:10456000B3FBF6F35B1C43F480431B0549D092B3C5
:1045700001EBC10202EB0111401EB0FBF1F0401C47
:10458000C0F30B0040F4804040F400402168CA6949
:104590004CF6FF739A431043C861D4E907100143F6
:1045A0002068026822F0C00211430160D4E90301CF
:1045B00001432068826848F2FF339A4311438160C7
:1045C000D4E9050108432168CA6822F0FF021043BC
:1045D000C86001E00EE016E02068016841F00101CA
:1045E00001602564202084F83D00256384F83E5056
:1045F000002070BD01EB4106431EB3FBF6F35B1CCC
:10460000B3E70120C2E701EB4101401EB0FBF1F02E
:10461000401CC0F30B00B7E7A086010080841E0099
:1046200000093D0040420F002DE9FF4F83B09A463C
:10463000DDE9119793460446DDF84080FFF72AFF35
:10464000054694F83D00202870D1192301227149B4
:104650002046009502F06CFA0028F5D194F83C0051
:10466000012863D0012084F83C0020680168C90754
:1046700003D1016841F0010101602068016821F463
:1046800000610160222084F83D00402084F83E0053
:1046900000262664C4F82480A4F82A90608D208522
:1046A0005D48E062CDE9007553465A4620460499BC
:1046B00002F046F900287CD1208DD0B1012821D00C
:1046C0000228206824D0416980690090208D032849
:1046D00069D801282BD0514902283B464FF00002EF
:1046E000009559D08846204602F022FA002860D171
:1046F0003CE02068416981690091016841F40071E2
:10470000016077E02068016821F480610160F0E7D2
:10471000016821F4806101602068016841F4006152
:104720000160206841698069009063E06FE02A467B
:104730003946204602F07BFA98BB20680069616A1E
:1047400008704EE02068016841F400710160206843
:104750000069616A0870606A401C6062218D491EB0
:104760002185618D491E6185216838E020680168D6
:1047700021F48061016020680069616A0870606AE4
:10478000401C6062208D401E2085608D401E60852B
:104790003B46002241460095204602F0C9F900B987
:1047A000D0E706E0FFE72A463946204602F03FFA06
:1047B00018B1012007B0BDE8F08F20680069616A78
:1047C0000870606A401C6062218D491E2185618DE0
:1047D000491E618521684A69D24352070AD4096992
:1047E0000170606A401C6062208D401E2085608DD3
:1047F000401E6085208D00287FF468AF202084F85B
:104800003D0084F83E6084F83C600020D2E702203E
:10481000D0E70000020010000000FFFF04000100CC
:104820002DE9FF4F83B09A46DDE911979346044680
:10483000DDF84080FFF72EFE054694F83D00202865
:104840007FD11923012240492046009502F070F9DA
:10485000002876D194F83C00012872D0012084F819
:104860003C0020680168C90703D1016841F00101DB
:1048700001602068016821F400610160212084F852
:104880003D00402084F83E0000262664C4F82480C1
:10489000A4F82A90608D20852C48E062CDE900754F
:1048A00053465A462046049902F0C8F870B930E0E1
:1048B0002A463946204602F0EDF958B1206C04280A
:1048C00004D12068016841F400710160012007B043
:1048D000BDE8F08F606A216800780861606A401C5A
:1048E0006062218D491E89B22185628D521E6285CA
:1048F00022685369DB435B070BD469B10078106110
:10490000606A401C6062208D401E2085608D401EC4
:104910006085208D0028CBD12A463946204602F0FA
:10492000E1F80028CAD154F83D0B016841F4007148
:104930000160202004F81E09E67766770020C6E7AC
:10494000FFE70220C3E70000020010000000FFFFA5
:10495000F0B587B0044614216846FBF73AFF1A49C0
:10496000206888422DD11948016841F00401016096
:10497000016801F004010591016841F00101016045
:104980000068122400F0010005904FF4007001252A
:10499000032604278DE8F10069460D48FFF774FCF3
:1049A00028028DE8F10069460A48FFF76DFC0748C8
:1049B0001030016841F400010160006800F400005B
:1049C000059007B0F0BD0000005C004030380240A8
:1049D0000008024000000240024881680278114449
:1049E00081607047EC0100200B4810B5016841F46C
:1049F00000710160016841F480610160016841F467
:104A000080710160032000F08DF80F2000F006F89F
:104A100000F03EF8002010BD003C024010B50146F9
:104A200088B000221C2000F05DF81C2000F04CF83B
:104A300014480024016841F001010160006805A9E3
:104A400000F001000690684600F0AEFD00F0D2FDD7
:104A50000D494000B0FBF1F10C484FF08042491E77
:104A6000026040F2E732C0E90324C0E9011401F01A
:104A7000E1F910B1012008B010BD044801F0DAFAE4
:104A8000F9E700004038024040420F00143F002088
:104A90000C4882B0016841F480410160006800F474
:104AA000804000900748001F016841F0805101607C
:104AB0000068002200F0805000900F21901E02B08C
:104AC00000F010B844380240002809DB00F01F0253
:104AD000012191404009800000F1E020C0F8001160
:104AE00070470000F0B40E4B1B680C46C3F3022362
:104AF000C3F10705042D00D90425191D072901D28A
:104B0000002300E0DB1E012606FA05F1491E2140C4
:104B100099409E40761E16403143F0BC06F04BBED5
:104B20000CED00E0064900F0070208684FF6FF03AD
:104B3000184040EA0220034A104308607047000012
:104B40000CED00E00000FA057047006841620020AB
:104B50007047F0B50368586A39B19C6A4FF48276A1
:104B600000EB144400204D1E0AE040EA0240986227
:104B70000FE006EB8007DF59401C04EB1744C0B27E
:104B8000A842F6D344EA02404FF4807202EB81015E
:104B900058500020F0BDD0F8040405F088BCC1EBEB
:104BA000C10200EB8202D0F80404926C05F0E9BB6C
:104BB000C1EBC10200EB8202D0F80404D2F8082253
:104BC00005F03DBCD0F8040405F073BC70B5044694
:104BD0000B0601F00F00C0EBC00104EB81014FF0A8
:104BE00001024FF0000503D581F83D203C3103E080
:104BF00081F8FD5101F5FE71087094F8BC0301289D
:104C000008D084F8BC23206806F07AF884F8BC53F6
:104C1000002070BD022070BD70B5044601F00F0089
:104C20006268904201D9012070BD0B0601F00F01AE
:104C3000C1EBC10104EB81014FF001024FF000050F
:104C400003D581F83D203C3103E081F8FD5101F5A9
:104C5000FE718D70087094F8BC03012808D084F8A8
:104C6000BC23206806F046FA84F8BC53002070BDCF
:104C7000022070BD01F00F01C1EBC10100EB81000A
:104C8000D0F8140270472DE9F04104460F0601F0F8
:104C90000F00C0EBC00104EB81014FF001064FF0A3
:104CA000000503D581F83D603C3103E081F8FD51FA
:104CB00001F5FE7108708A60CB704A7802B1C88035
:104CC000022B00D10D7194F8BC03012809D084F89F
:104CD000BC63206805F06CFF284684F8BC53BDE82F
:104CE000F0810220FBE770B50C4601F00F05C5EB23
:104CF000C50100EB8101C1F81032C1F80822002380
:104D0000C1F8143281F8FD3181F8FC51036901F5D5
:104D1000FE71012B00D10A612207027C006803D0DA
:104D200006F040FA002070BD06F02CF9FAE770B5E5
:104D300004460D4601F00F006168884201D9012048
:104D400070BD29064FF000064FF0010207D5C0EBF9
:104D5000C00104EB810181F83D203C3107E0C5EB47
:104D6000C50104EB810181F8FD6101F5FE718A70D6
:104D7000087094F8BC03012807D084F8BC2320688D
:104D800006F0E4F9280702D007E0022070BD217C7C
:104D900004F57172206806F081F984F8BC63002084
:104DA00070BD70B50C4601F00F05C5EBC50100EBF9
:104DB00081010B658A6400234B65012381F83D3036
:104DC00001F83C5F0369012B00D10A612207027CD4
:104DD000006803D006F0E6F9002070BD06F0D2F8B6
:104DE000FAE700002DE9FC5F05680446284606F056
:104DF0000AFB00287ED1206806F031FB002879D01C
:104E0000206806F02CFB800704D52168486900F073
:104E100002004861206806F022FBC10604F57170AB
:104E2000009034D52068816921F0100181612F6ADA
:104E300007F00F00C0EBC00004EB8006C7F343404F
:104E400006F5FE76022802D0062811D01AE047F6B1
:104E5000F070074216D0C7F30A1217462846F168C9
:104E600006F001FBF0683844F060B069384408E0AF
:104E700008222846009906F0F6FAB069C7F30A112D
:104E80000844B0612068816941F0100181612068A7
:104E900006F0E5FA00034FF0010A4FF0080B5BD56E
:104EA0000026206806F0BAFA0746DFF8689351E05A
:104EB000F8074DD0F1B2206806F0C9FA8046C00765
:104EC00007D005EB4611C1F808AB3146204602F089
:104ED0004BFC5FEA087022D505EB4611C1F808BB10
:104EE0002068016C00EB46100191D0F8082B494571
:104EF00007D900E08BE1110403D54FF40041C0F85D
:104F0000081B204600F076FA0198484507D9206929
:104F1000012804D120680121009A06F0BFF85FEA59
:104F2000C86004D505EB46111020C1F8080B5FEAF4
:104F3000886004D505EB46112020C1F8080B5FEA14
:104F4000884005D505EB46104FF40051C0F8081B0A
:104F50007F08761C002FABD1206806F080FA400352
:104F60004FF000095CD5206806F051FA074600268C
:104F700054E0F80750D0F1B2206806F056FA8046A7
:104F8000C00723D006F00F020AFA02F0D5F8342841
:104F90008243C5F8342805EB4610C0F808A92069FB
:104FA00001280FD1C6EBC60004EB8000D0E9112127
:104FB0001144816436B9206D20B920680121009A1E
:104FC00006F06CF8F1B22046FFF7E9FD5FEA0870E1
:104FD00003D505EB4611C1F808B95FEAC86004D5EE
:104FE00005EB46111020C1F808095FEA486004D5B6
:104FF00005EB46114020C1F808095FEA887004D526
:1050000005EB46110220C1F808095FEA086003D5E4
:105010003146204602F00EFC7F08761C002FA8D1F6
:10502000206806F01CFA002811DAD5F8040820F0F0
:105030000100C5F8040894F8F403012829D020469B
:1050400000F0BCF92068416901F00041416120682D
:1050500006F005FA00050BD5D5F80808C00702D000
:10506000204600F0EFF92068416901F400614161D8
:10507000206806F0F4F9C00468D5D5F8040820F0DB
:105080000100C5F804081021206806F099F90021F4
:1050900027E084F8F49300212046FFF755FDD1E77F
:1050A00005EB41104FF67F32C0F80829D0F80039DF
:1050B00023F40013C0F80039D0F8003943F000633E
:1050C000C0F80039C0F8082BD0F8002B22F40012E9
:1050D000C0F8002BD0F8002B42F00062C0F8002B83
:1050E000491C60688842DBD8D5F81C0840F00110E4
:1050F000C5F81C08206B60B1D5F8840840F00B009F
:10510000C5F88408D5F8440840F00B00C5F84408F9
:105110000CE0D5F8141842F22B000143C5F814181E
:10512000D5F8100840F00B00C5F81008D5F80008B5
:1051300020F4FE60C5F80008217C2068009A05F084
:10514000ADFF2068416901F480514161206806F09B
:1051500086F9800415D5206805F06AFD206806F000
:1051600045F9E06000F040FA0146227B206806F035
:10517000D9F9204600F00CF92068416901F400518A
:105180004161206806F06BF9000707D5204600F062
:1051900019F92068416901F008014161206806F0B1
:1051A0005EF9C00208D50021204600F035F82068DD
:1051B000416901F480114161206806F050F98002D4
:1051C00008D50021204600F02BF82068416901F441
:1051D00000114161206806F042F9400007D52046E1
:1051E000FFF7D9FC2068416901F0804141612068E6
:1051F00006F035F940070AD520684568680702D5EA
:105200002046FFF7DFFC2068416829434160BDE884
:10521000FC9F00000A30544FD0F8040405F09AB9FE
:10522000D0F8040405F0A7B92DE9F0418AB00400D4
:1052300005D094F8BD032668002520B108E00120C0
:105240000AB0BDE8F08184F8BC53204600F05EF857
:10525000032084F8BD03F06BC00500D425612068ED
:1052600005F08AFE04F11001282288466846FBF703
:1052700054FA94E80F0005F0E9FC0226C8BB0021AF
:10528000206806F00FF9002001270EE0C0EBC001F6
:1052900004EB810181F83D7001F83C0FC880CD70AE
:1052A0008D60CD60401CC0B24D6161688142EDD817
:1052B000002011E0C0EBC00104EB810181F8FD5139
:1052C00081F8FC0181F8FF51C1F80452C1F808527D
:1052D000401CC0B2C1F8105261688142EAD828224D
:1052E00041466846FBF719FA94E80F0005F08AFD7D
:1052F00010B184F8BD63A2E784F8385084F8BD7318
:10530000206805F071FD00209AE7000010B586B016
:10531000044614216846FBF75CFA2068B0F1A04F00
:105320002FD119480021026842F001020260006892
:1053300000F0010005904FF4C05000900220CDE92C
:105340000101032003900A20049069460F48FEF7EC
:105350009BFF0D48001D016841F0800101600A4873
:105360001430016841F4804101600068002200F4BB
:105370008040059005214320FFF7B4FB4320FFF751
:10538000A3FB06B010BD0000303802400000024010
:1053900070B50446C068012570B1022801D0FDF740
:1053A00098FE2946D4F8040405F054F9D4F804040E
:1053B000BDE8704005F005B90025F2E7D0F8040417
:1053C00005F02DB9D0F8040405F033B910B5044642
:1053D00090F8BC0301280BD0012084F8BC0384F8AA
:1053E0003810206806F08CF8002084F8BC0310BD4B
:1053F000022010BDD0F8042400F57171104605F0AC
:1054000035B910B50446006894F8BC13012906D0DC
:10541000012184F8BC13A16A012902D008E002200E
:1054200010BDA169012903D0816B41F480318163F2
:10543000206805F0ABFF206805F0C8FC002084F868
:10544000BC0310BD10B50446D0F8040405F052F9B1
:105450002068D0F8001E41F00101C0F8001E206A4B
:10546000002804D00248016841F00601016010BD27
:1054700010ED00E02DE9F0470E46050065D0DFF89D
:105480001481D8F80000F7B200F00700B04207D24C
:1054900088F80070D8F8000000F00700B04254D13E
:1054A00028683D4C810712D5400703D5206840F499
:1054B000E05020602878000703D5206840F4604061
:1054C00020602068A96820F0F00008432060287858
:1054D000C0072DD0304968680839012812D0022849
:1054E00013D0032811D00968890700292DDA216813
:1054F00021F0030101432160FEF7CCFF814641F218
:10550000883A0EE009688903EFE709688901ECE74A
:10551000FEF7C0FFA0EB0901514502D90320BDE809
:10552000F0872068696800F00C00B0EB810FEFD1C4
:10553000D8F80010404601F00701B14207D90770C2
:10554000006800F00700B04201D00120E7E72878AA
:10555000400705D52068E96820F4E0500843206042
:105560002878000706D52068296920F4604040EAC1
:10557000C100206000F05EF82168084AC1F3031101
:10558000515CC8400649086006480068FFF746FAC3
:105590000020C4E7003C02400838024080020108B5
:1055A000F8010020F00100200F2202600C4A13686D
:1055B00003F003034360136803F0F0038360136890
:1055C00003F4E053C36012684FF4E05303EAD202DD
:1055D00002610448006800F007000860704700009E
:1055E00008380240003C0240014800687047000053
:1055F000F80100200448054900680968044AC1F31D
:105600008221515CC8407047F801002008380240F0
:10561000900201080448054900680968044AC1F37A
:105620004231515CC8407047F80100200838024000
:1056300090020108154810B5006810F00C021448DB
:1056400013D01449042A0FD0082A0ED10F4C241F5E
:105650002268236802F03F025B0207D52068C0F38E
:105660008810A0FB010106E0084610BD2168C1F3C7
:105670008811A1FB00010023FAF7E0FE2168C1F3C5
:105680000141491C4900B0FBF1F010BD083802404F
:105690000024F400001BB7002DE9F84F04006ED081
:1056A0002078DFF84C93C007A9F104054AD009F12E
:1056B00004000168C1F38101012908D00068C0F32A
:1056C000810002280AD1D9F80000400206D52868D6
:1056D000800337D560680028E1D033E06068B0F51A
:1056E000803F10D0B0F5A02F286810D020F4803073
:1056F0002860286820F4802028606068A8B1FEF740
:10570000C9FE06460DE0286840F48030F4E740F416
:1057100080202860F7E700BFFEF7BCFE801B6428EE
:1057200073D828688003F7D50CE0FEF7B3FE064671
:1057300005E000BFFEF7AEFE801B6428F0D82868A5
:105740008003F7D42078DFF8AC8280074FF0000A9E
:105750003ED5A748001D016811F00C0F08D0006865
:10576000C0F3810002280BD1D9F80000400207D411
:105770002868800716D5E068012800D112E033E1DF
:10578000E068B8B10120C8F80000FEF783FE0646C5
:1057900005E000BFFEF77EFE801B0228C0D8286807
:1057A0008007F7D52868216920F0F80040EAC10099
:1057B00028600DE0C8F800A0FEF76CFE064604E085
:1057C000FEF768FE801B02281FD828688007F7D4E0
:1057D0002078000722D5864F87486169703771B1FC
:1057E00001210160FEF756FE064604E0FEF752FE78
:1057F000801B022809D838688007F7D50EE0C0F86A
:1058000000A0FEF747FE064605E082E0FEF742FEF6
:10581000801B02287DD838688007F7D4207840079D
:1058200068D5DFF8CCB100270BF13C0BDBF80000AA
:10583000C0000BD4DBF8001041F08051CBF8001011
:10584000DBF80000012700F0805000906B4E3068BC
:10585000C00510D4306840F480703060FEF71AFE46
:10586000009005E0FEF716FE0099401A022850D875
:105870003068C005F6D55E4EA0686C3601280FD0A2
:105880000528306810D020F001003060306820F02A
:1058900004003060A068B8B1FEF7FCFD00900FE096
:1058A000306840F00100F4E740F004003060F7E7B2
:1058B000FEF7F0FD0099411A41F28830814266D826
:1058C00030688007F4D50EE0FEF7E4FD009007E0B5
:1058D000FEF7E0FD0099411A41F28830814256D826
:1058E00030688007F4D42FB1DBF8001021F080512C
:1058F000CBF80010A069C8B33D49091D0968C1F380
:10590000810102294AD00228504607D0C8F8600019
:1059100000E03CE0FEF7BEFD04463BE04746C8F829
:105920006000FEF7B7FD064605E000BFFEF7B2FDDA
:10593000801B02282BD828688001F7D4D4E90701FE
:105940000843A16A2E4A490802EB0141626A41EA12
:105950008211084394F82C1040EA0161C9F8001044
:1059600001203866FEF796FD044606E03EE000BFE3
:10597000FEF790FD001B022809D828688001F7D5A2
:1059800034E000BFFEF786FD001B022802D9032089
:10599000BDE8F88F28688001F4D427E00128F7D00B
:1059A000D9F80000E26900F4800191421CD1226A1A
:1059B00000F03F01914217D147F6C071626A014081
:1059C000B1EB821F10D1A26A4FF0FF3300F44031D7
:1059D00003EB5202B1EB024F06D194F82C1000F009
:1059E0007060B0EB016F01D00120D1E70020CFE75C
:1059F0000438024000004742800E474200700040D9
:105A00000000FFFF70B5040009D0606A002540B1B6
:105A100025616561A56294F8510040B10CE0012058
:105A200070BD6068B0F5827FF4D0E561F2E784F87C
:105A30005050204600F044F8022084F851002068BD
:105A4000016821F040010160A088218900F4827082
:105A500001F404410843A18901F400610843217C59
:105A600001F002010843217D01F001010843218B6F
:105A700001F400710843217F01F03801084394F8D4
:105A8000201001F080010843218D01F400510843EA
:105A900021680860A069042101EA104094F82410EC
:105AA00001F010010843216848602068C16921F4B1
:105AB0000061C1616565012084F85100002070BD5E
:105AC0002DE9F04387B0064614216846FAF781FEB7
:105AD00034493068884261D133480025016841F477
